{
  "contractName": "Bidder",
  "abi": [
    {
      "constant": true,
      "inputs": [],
      "name": "name",
      "outputs": [
        {
          "name": "",
          "type": "string"
        }
      ],
      "payable": false,
      "stateMutability": "view",
      "type": "function"
    },
    {
      "constant": true,
      "inputs": [],
      "name": "bidAmount",
      "outputs": [
        {
          "name": "",
          "type": "uint256"
        }
      ],
      "payable": false,
      "stateMutability": "view",
      "type": "function"
    },
    {
      "constant": true,
      "inputs": [],
      "name": "eligible",
      "outputs": [
        {
          "name": "",
          "type": "bool"
        }
      ],
      "payable": false,
      "stateMutability": "view",
      "type": "function"
    }
  ],
  "bytecode": "0x6080604052614e2060015534801561001657600080fd5b50610229806100266000396000f300608060405260043610610057576000357c0100000000000000000000000000000000000000000000000000000000900463ffffffff16806306fdde031461005c578063aec2393b146100ec578063d832d92f14610117575b600080fd5b34801561006857600080fd5b50610071610146565b6040518080602001828103825283818151815260200191508051906020019080838360005b838110156100b1578082015181840152602081019050610096565b50505050905090810190601f1680156100de5780820380516001836020036101000a031916815260200191505b509250505060405180910390f35b3480156100f857600080fd5b506101016101e4565b6040518082815260200191505060405180910390f35b34801561012357600080fd5b5061012c6101ea565b604051808215151515815260200191505060405180910390f35b60008054600181600116156101000203166002900480601f0160208091040260200160405190810160405280929190818152602001828054600181600116156101000203166002900480156101dc5780601f106101b1576101008083540402835291602001916101dc565b820191906000526020600020905b8154815290600101906020018083116101bf57829003601f168201915b505050505081565b60015481565b600260009054906101000a900460ff16815600a165627a7a72305820168a1f82940357e369c3db66aa8eec925eea97f79b8c6446c851e8ee736906950029",
  "source": "pragma solidity ^0.4.0; \r\n\r\ncontract Bidder {\r\n    \r\n     string public name;\r\n     uint public bidAmount = 20000;\r\n     bool public  eligible;\r\n     uint constant minBid = 1000;\r\n     \r\n     \r\n}",
  "sourcePath": "/home/atharv/All Sol files/6_Auction (under development)/contracts/BidderData.sol",
  "compiler": {
    "name": "solc",
    "version": "0.4.24+commit.e67f0147.Emscripten.clang"
  },
  "schemaVersion": "2.0.1",
  "updatedAt": "2018-11-12T08:45:21.664Z"
}